S0240000466F746F72657A79746F725F5247425F4144435F554152545F4952512E7372656302
S11300000C945A000C946C000C946C000C946C00CE
S11300100C946C000C946C000C946C000C946C00AC
S11300200C946C000C946C000C946C000C946C009C
S11300300C946C000C946C000C946C000C946C008C
S11300400C946C000C946C000C946C000C946C007C
S11300500C946C000C9489000C946C000C946C004F
S11300600C946C000C946C000C946C000C946C005C
S11300700C946C000C946C000C946C000C946C004C
S11300800C946C000C946C000C946C000C946C003C
S11300900C946C000C946C000C946C000C946C002C
S11300A00C946C000C946C000C946C000C946C001C
S11300B00C946C0011241FBECFEFD8E0DEBFCDBF7F
S11300C021E0A0E0B1E001C01D92A230B207E1F747
S11300D00E94BF000C9408010C94000081E48093FA
S11300E07C0082E080937E0085E080937B008FEA31
S11300F080937A0008958DE08093810084E89EE1E6
S1130100909389008093880090938B0080938A0059
S113011008951F920F920FB60F9211242F933F93BD
S11301204F935F936F937F938F939F93AF93BF93FB
S1130130CF93DF93EF93FF93B29A809179000E945B
S11301400101C8E7D0E088810E940101888199817A
S11301509093010180930001FF91EF91DF91CF9182
S1130160BF91AF919F918F917F916F915F914F91CB
S11301703F912F910F900FBE0F901F9018950E94E2
S11301806E000E94F0000E947B008CE18AB98BB95A
S1130190559A5D9A78948091000190910101893C6F
S11301A0910520F45C988BB18C6218C08091000199
S11301B0909101018D32914020F45B988BB184635E
S11301C00DC080910001909101018139914020F48A
S11301D05A988BB1886302C08BB18C618BB9DBCF29
S11301E01092C50087E68093C400E0ECF0E08081C3
S11301F08D7F808388E08093C10086E08093C20075
S113020008959091C00095FFFCCF8093C600089597
S1070210F894FFCF8C
S9030000FC
